:020000040800F2
:1000000098710020550200084D7000083555000811
:10001000F96B0008E514000881AB0008000000003F
:1000200000000000000000000000000071870008D0
:10003000311500080000000031770008E5A1000834
:100040006F0200086F0200086F0200086F020008CC
:100050006F0200086F0200086F0200086F020008BC
:100060006F0200086F0200086F0200086F020008AC
:100070006F0200086F020008F5140008011500085F
:100080006F0200080D1500086F0200086F020008DB
:100090006F0200086F0200086F0200086F0200087C
:1000A0006F0200086F0200086F020008DDA200085E
:1000B0006F0200086F020008E9A200084555000819
:1000C000395500086F0200086F020008157E00080D
:1000D000217E0008E5A80008F1A80008FDA8000896
:1000E0006F0200086F0200086F0200086F0200082C
:1000F0006F0200086F0200086F020008191500085F
:100100006F0200086F020008F5A200086F020008E5
:100110003DA4000849A4000801A300080DA300089D
:100120006F0200086F0200086F0200086F020008EB
:100130006F0200086F0200086F0200086F020008DB
:100140006F0200086F0200086F0200086F020008CB
:100150006F0200086F0200082515000809A90008B1
:100160006F0200086F0200086F0200086F020008AB
:100170006F0200086F0200086F0200086F0200089B
:100180006F0200086F02000800F002F800F052F859
:100190000AA090E8000C82448344AAF10107DA45E2
:1001A00001D100F047F8AFF2090EBAE80F0013F0E2
:1001B000010F18BFFB1A43F0010318470C07010099
:1001C0002C070100103A24BF78C878C1FAD852072A
:1001D00024BF30C830C144BF04680C6070470000C1
:1001E0000023002400250026103A28BF78C1FBD840
:1001F000520728BF30C148BF0B60704766290FF017
:100200001684642900F02281752900F01F8163297A
:1002100000F07585002070471FB50FF0F6FB00F069
:100220007BFD0400002000210EF0D6FEE0601FBD23
:1002300010B510BD00F074FE1146FFF7EDFF0BF096
:1002400013FB00F092FE03B4FFF7F2FF03BC00F0D3
:1002500095FE00000948804709480047FEE7FEE791
:10026000FEE7FEE7FEE7FEE7FEE7FEE7FEE7FEE766
:1002700004480549054A064B70470000C9A200081A
:1002800089010008986B002098710020986D00206B
:10029000986D002053EA020C00F069802DE9F04BC4
:1002A0004FF00006002B1FBFB3FA83F503FA05F4E5
:1002B00024FA05F65E4012BF1643B2FA82F502FA3E
:1002C00005F4C5F120051EBF22FA05FC44EA0C0422
:1002D000203556EA044C4FEA144418BF641C4FF012
:1002E00000084FF00009904271EB030C39D300294C
:1002F00019BFB1FA81F701FA07F6B0FA80F700FAF0
:1003000007F6C7F120071EBF20FA07FC46EA0C06D5
:100310002037B6FBF4FCA7EB0507103F07F01F0BD7
:10032000CBF120062CFA06F60CFA0BFB44BFB346C1
:100330000026202FA4BF5E464FF0000B5BEA060CA0
:1003400008BF4FF0010B19EB0B0948EB0608ABFB9C
:10035000027C06FB02CC0BFB03CCC01B71EB0C0137
:10036000C1E70B46024641464846BDE8F08B13B54F
:10037000084318BF4FF0FF300146AFF30080BDE8DF
:100380001C4070470FB41CB5074B06AA7B44694656
:100390000090059800F091FC0020694600F0A0FC58
:1003A0001CBC5DF814FB00005109000070B5044648
:1003B00085690068C10601D5302600E02026C00707
:1003C00007D070BDD4E9012130469047206A401C17
:1003D00020626D1EF6D570BD70B504468569007843
:1003E000C00707D170BDD4E9012120209047206AC1
:1003F000401C20626D1EF6D570BD70B50C460546DA
:10040000012A05D02878800600D5EA69002302E099
:10041000012305E05B1C934202D2E05C0028F9D185
:10042000A869E618C01AA861286A184428622846F4
:10043000FFF7BCFF04E0D5E9012114F8010B904758
:10044000B442F8D32846FFF7C7FF70BD2DE9F0414D
:100450000646002410687529314616A510D0AFF362
:100460000080002802DA404213A507E031688A07BD
:1004700001D512A502E0490704D511A5012401E028
:10048000AFF3008000210A2206F1240709E0B0FB47
:10049000F2FCB0FBF2F302FB1C003030785418463B
:1004A000491C0028F3D123462A463046BDE8F041D6
:1004B00000F096B9000000002D0000002B000000A5
:1004C000200000002DE9F05F894604464FF0000A45
:1004D000DFF824B1FB44C0F820A02046E16888473B
:1004E00000287DD0252806D0D4E901219047206A34
:1004F000401C2062F1E700255F462046E1688847FE
:100500002028064607DB312E05D2B81910F8200C3A
:1005100008B10543F1E7A80701D525F00405C4F8A3
:100520001CA00027C4F818A02A2E09D030460EF0CF
:1005300021FD38B304EB8708303EC8F8186019E095
:1005400059F8041B204604EB87029161E168884753
:10055000012F064618D1E069002820DA25F0200591
:100560001DE0D8F8180000EB800006EB40003038A2
:10057000C8F818002046E168884706460EF0FAFCE5
:100580000028EED1012F0AD02E2E08D12046E16896
:1005900088477F1C0646022F45F02005C4DBA06972
:1005A000002803DA404245F00105A061E80701D0C8
:1005B00025F01005A6B1A6F14100192802D8203671
:1005C00045F400654A463146204625604D46FFF712
:1005D00015FE60B1012807D0ED1D25F0070000E0F1
:1005E00007E000F1080978E705F1040975E73046EE
:1005F0007AE7206ABDE8F09F5AF50000032A40F22E
:10060000308010F0030C00F0158011F8013BBCF1B4
:10061000020F624498BF11F801CB00F8013B38BFCC
:1006200011F8013BA2F1040298BF00F801CB38BFDA
:1006300000F8013B11F0030300F02580083AC0F0F8
:10064000088051F8043B083A51F804CBA0E80810A0
:10065000F5E7121D5CBF51F8043B40F8043BAFF3D3
:100660000080D20724BF11F8013B11F801CB48BF2D
:1006700011F8012B24BF00F8013B00F801CB48BF63
:1006800000F8012B704710B5203AC0F00B80B1E89C
:100690001850A0E81850B1E81850A0E81850203AB7
:1006A000BFF4F5AF5FEA027C24BFB1E81850A0E8C0
:1006B000185044BF18C918C0BDE810405FEA827CDA
:1006C00024BF51F8043B40F8043B08BF7047D207F1
:1006D00028BF31F8023B48BF11F8012B28BF20F892
:1006E000023B48BF00F8012B704702F0FF0343EACA
:1006F000032242EA024200F002B84FF0000200B5C5
:10070000134694469646203922BFA0E80C50A0E834
:100710000C50B1F12001BFF4F7AF090728BFA0E8E2
:100720000C5048BF0CC05DF804EB890028BF40F8AE
:10073000042B08BF704748BF20F8022B11F0804FF0
:1007400018BF00F8012B704730B44FF0013C50F84F
:10075000042B51F8043BCCFA52F4D51A20D1FCB941
:1007600050F8042B51F8043BCCFA52F4D51A17D1A7
:10077000B4B950F8042B51F8043BCCFA52F4D51A12
:100780000ED16CB950F8042B51F8043BCCFA52F45A
:10079000D51A05D1002CDAD030BC4FF000007047DC
:1007A00029BAB1FA81F111F01801D1F12000844089
:1007B000F2D1CA40CB4012F0FF0213F0FF0330BC6D
:1007C000D01A704770477047704710B500F0A8FA0C
:1007D000006810BD10B5044600F0A2FA046010BD18
:1007E0002DE9F0470D4699469246044600F124084B
:1007F0000168880604D5E06921F01001216000E05D
:100800000120A84201DD471B00E00027A1697A19F9
:1008100002EB0900081AA0612078C00602D4204625
:10082000FFF7C4FD002608E0D4E901211AF806000C
:100830009047206A401C761C20624E45F4DB2078ED
:10084000C0060AD52046FFF7B1FD06E0D4E9012134
:1008500030209047206A401C2062381EA7F1010713
:10086000F4DC07E0D4E9012118F805009047206A7C
:10087000401C2062281EA5F10105F3DC2046FFF78D
:10088000ABFD2078000602D50220BDE8F0870120EC
:10089000FBE72DE9FF4F0C461E464FF0FF378BB0AC
:1008A000D2E90001DDF860800A908A46C1F30A555A
:1008B00005B93D46002108464FF00000BAF1000F8F
:1008C00000F4400005DA00EB80004FF4400101EA3B
:1008D00050004FEA9059B9F1010F00DDB9460A986E
:1008E00050EA4A000ED044F61050A5F2FF354543B9
:1008F0002F14B8F1000F1ED07542291E1EDDC9F15C
:1009000000021CE0B8F1010F4FF0000001D03021CF
:1009100003E0F24305E02154401CB042FBDB3046CB
:100920000022002121540B99C1F80880C1E9002060
:100930000FB0BDE8F08FBD1B6D1CDEE74A4600DA44
:10094000694206A800F076FA06AB93E8070003AB0D
:1009500083E8070050460A990CF0AAFE8DE80700CC
:10096000A0F500501F3800900398002D0ADD42F2D8
:100970001F014A460844002303A9039068460DF06E
:1009800013F909E0A0F500504A461F38002303A9D7
:10099000039068460DF01DF98DE807000004000C77
:1009A00003D04FF0FF30410800E01046B8F1000FCF
:1009B00003D00022009215461EE0751E05D400F0FB
:1009C000B3F9303262556D1EF9D5B34601220843A2
:1009D00002D000227F1C04E02078302801D10022C0
:1009E0007F1E002A099784D01DE0112D07DA00F040
:1009F0009BF9303262556D1C50EA0102F5D1084373
:100A000002D00098C8B10EE00021681E05E0235C0A
:100A1000625C63542254401E491C8142F7DBAB46A2
:100A2000A81B401E0990002004F80B000B98099A9F
:100A3000C0F80880C0E9002B7AE711264FF00008C3
:100A400057E72DE9F04F88460446D21D22F00701F2
:100A500091B0D1E90001CDE90A010DF0F1F90246AA
:100A60000B98C00F01D02D2007E02068810701D529
:100A70002B2002E0202101EAC000032A099001D0C6
:100A8000072A05DB03464146204600F093F90BE1B7
:100A90002078800601D5E06900E00620B8F1650FF6
:100AA000814606D0B8F1660F18D0B8F1670F70D143
:100AB00031E00020B9F1110F009001DB112301E0BA
:100AC00009F101030AAA01A90CA8FFF7E2FEDDE97A
:100AD0000C70002609F10105834647E001204B46D2
:100AE00000904FF000470AAA01A90CA8FFF7D1FE19
:100AF000DDE90DB00C995D46002610B909F1010041
:100B00000D18B9EB050003D4C0F1FF3609F101055A
:100B1000A5EB09002BE0B9F1010F01DA4FF0010953
:100B20000020B9F1110F0090484601DD112300E0CB
:100B300003460AAA01A90CA8FFF7ABFEDDE90C7079
:100B40004D4600268346207800070AD4AB4500DADC
:100B50005D4601A8012D04DD411911F8011C302961
:100B600007D04F4502DA17F1040F04DA012082465C
:100B70000FE06D1EEEE7002F02DCED1B3E4403E0AC
:100B8000781CA84200DD7D1CB81B00F1010A4FF063
:100B900000472078000703D4AA4501DB4FF0FF3A55
:100BA0000021B7F1004F0DF143088DF8431024D018
:100BB00002202B23002F01DA7F422D230A21021E5F
:100BC000A0F1010000DC5FB197FBF1FC97FBF1F2B3
:100BD00001FB1C7C17460CF1300C08F801CDEEE748
:100BE000A8F1010003702188090501D5452100E025
:100BF0006521A0F1010800F8011C09980FA9A1EBDB
:100C00000807FF1D00B10120411901EBEA70A1693D
:100C10003844081A401EA0612078C00602D420463D
:100C2000FFF7C4FB099828B1D4E901219047206A55
:100C3000401C20622078C00622D52046FFF7B6FB74
:100C40001EE0002E04DBB34502DD01A8805D00E05C
:100C50003020D4E901219047206A401C2062761C94
:100C6000AAF101005FEA000A0AD100F055F8C06855
:100C70000168405CD4E901219047206A401C206251
:100C8000281EA5F10105DCDC07E0D4E9012118F8F4
:100C9000010B9047206A401C2062381EA7F1010713
:100CA000F3DC2046FFF798FB032011B041E600007B
:100CB00001694A1C02610878704700B58FB0CDE920
:100CC00001310021059105497944CDE90310114610
:100CD0006846FFF7F7FB0FB000BD0000E5FFFFFF20
:100CE0000A6802F8010B0A60704710B5436913B136
:100CF000AFF3008001E0FFF780FB012010BD127808
:100D000000F124010A7000224A700122EDE7116807
:100D10004FF0FF32E9E7000000487047580000201C
:100D2000004870473800002030B5B0F10A0271F178
:100D300000034FEA900E4EEA817EB0EB0E0061EBAD
:100D400091014FEA101E4EEA017E10EB0E0041EBBE
:100D500011114FEA102E4EEA016E10EB0E0041EB1E
:100D600011214FEA104E4EEA014E10EB0E0041EBFE
:100D70001141401841F100014FEAD00040EA4170B2
:100D80004FEAD1014FEA810444EA907410EB8005E8
:100D900044EB01046D1944EB0404521BA3414FF0D2
:100DA000000348BF0A3200D530BD401C41F10001AC
:100DB00030BD00002DE9F0411F46044603260168BE
:100DC000072A01F4006004DB08B116A505E016A5AA
:100DD00003E008B115A500E015A521F01000206082
:100DE000A069C01EA0610FB1401EA0612046FFF7A0
:100DF000DDFA4FB1D4E9012138469047206A401C02
:100E00002062C01C206206E0206AFAE7D4E90121D2
:100E100015F8010B9047761EF8D22046FFF7DCFA52
:100E2000BDE8F0814E414E006E616E00494E4600B5
:100E3000696E66002DE9F047814616468AB035484E
:100E400078440DC88DE80D0032487844801C03AC0E
:100E50000DC884E80D0041F69B300844372190FB13
:100E6000F1F290FBF1F5A5F1800501FB12041B3CAA
:100E700002D56442012000E00020DFF898A08046FF
:100E80000027FA44AAF1BE0A0EE0E0070AD0324673
:100E9000684607EB470101230AEB81010CF099FE3C
:100EA0008DE8070064107F1C002CEED1194F7F44A1
:100EB000AE3F19E0E80715D007EB04100DF1180A52
:100EC00090E80E008AE80E00C068F04201D198193F
:100ED00008903246012306A903A80CF07AFE03AB62
:100EE00083E807006D10641C002DE3D14FF001036F
:100EF00032466946B8F1000F03A802D00CF054FE48
:100F000001E00CF066FEC9E90001C9F808200AB04A
:100F1000BDE8F08740EE0000004870473800002030
:100F20007546FFF7F9FFAE4605006946534620F0C7
:100F30000700854618B020B5FFF79AF9BDE82040B4
:100F40004FF000064FF000074FF000084FF0000B85
:100F5000AC46ACE8C009ACE8C009ACE8C009ACE8F4
:100F6000C00921F007018D46704710B50446AFF364
:100F700000802046BDE81040FFF765B90149182000
:100F8000ABBEFEE7260002007047000084B02DE9EA
:100F9000F04381B02DED108B82B00DF1680C8CE820
:100FA0000F009DED1A2A9DED1B3A9DED1C4A389CC1
:100FB00022EE030A20EE040ADDED239A9DED24FAC9
:100FC0009DED25EA9DED2C6A9DED2D7ADDED2E0A35
:100FD00094ED061A94ED075AD4ED081AD4ED092AB7
:100FE00040F2240842F2902642F2942742F29825D9
:100FF000B5EE400AC2F20008C2F20006C2F20007D3
:10100000C2F20005F1EE10FA88ED001A86ED005AE2
:10101000C7ED001AC5ED002A00F0D58123EE030AC2
:1010200062EE023A33EE800A64EE043A33EE800A4E
:1010300067EE073A66EE064A74EEA33A60EEA04AFF
:1010400045F6862974EEA33AC5F6377913EE900A71
:10105000BEEE009AA9EB600004EE900A63EE893AB6
:1010600063EEA43A63EEA43AB7EE08AA73EE8A3AA6
:1010700063EEA43A66EE23AA67EE23BA60EEA3CA33
:1010800022EEA26A21EEA27A65EE220A61EE222AFF
:1010900061EEA13A65EE214A61EE211A65EE055A2C
:1010A00021EE055A21EE011A71EE256A76EEE36A09
:1010B00036EEC68A74EEE26A74EEA22A71EE654AD2
:1010C00034EEA31A76EEA6DA72EEA22A31EE461AB2
:1010D0006BEEAD6A68EE2A7A2BEE811ACDED012A0D
:1010E00062EEAA2A77EEA66A71EEA07A32EE811A33
:1010F00077EE452A77EEA7EA72EEA22A6EEEAC7A78
:1011000062EEAC2A77EEA66A32EE811A10EE100A71
:1011100021EE011A66EEA62AA9EB600032EE811AD2
:1011200020EE090A02EE900A20EE220A20EE220AA0
:1011300070EE0A5AB1EEC10A65EEA22A62EE22FAF8
:1011400023EE22DA30EEE12A35EE073A64EE228A07
:1011500034EEE34A32EE02CA33EE03BAF0EE4A7AD4
:1011600034EE06AA2BEE8B2A2CEE2A3A33EE022A14
:10117000B4EE400A2AEE2C3AF0EE496AF1EE10FA8B
:1011800033EE029A80F127812CEE091A28EE002A0C
:1011900032EE011A2DEE802A2BEE093A32EE032AA6
:1011A0002EEE800A2AEE093A30EE030A22EE2C3A9D
:1011B0002BEE804A34EE433A20EE2A0A2CEE814A86
:1011C00021EE2B1A2AEE822A34EE400A32EE411A20
:1011D0002BEE282A2DEE0A4A34EE422A28EE8C4ABB
:1011E0002AEE2F5A34EE454A2CEE0D5A2FEE8B6A1A
:1011F00041F2FC2036EE455AC2F200009FED7A6AB9
:1012000090ED007A41F2003162EE060AC2F200016E
:1012100030EE877AD1ED000A41F2043264EE061A0C
:10122000C2F2000271EEA00AD2ED001A25EE066AA3
:1012300036EE216AF1EE081A22EE212A32EE292A30
:1012400032EE072A23EE213A32EE032A24EE213A27
:1012500033EE0F3A33EE203A20EE210A33EE000A45
:1012600025EE213A33EE0E3A21EE211A33EE063AFC
:1012700033EE011A97ED003A96ED004AD5ED002ABB
:1012800020EE035A64EE421A31EEC55A62EE811A1C
:1012900035EE615AF1EE041ADFED543A25EE215A8B
:1012A00085EE235AD8ED004A80ED007AC1ED000AA0
:1012B000F0EE480A82ED006A34EE855A61EE034A88
:1012C00065EE025A75EEA44A62EE805A74EEE54A63
:1012D00064EEA14AC4EEA34A65EE005A34EE244AF5
:1012E00061EE044A75EEE44A62EE825A75EEA44A53
:1012F00064EEA14AC4EEA34A20EE040A25EE011AC8
:1013000031EE000A33EE243A23EE021A30EE410A9F
:1013100020EE210A80EE230A24EE041A25EE052A87
:1013200032EE011A23EE032A32EE011A32EE800A5F
:1013300020EE002A32EE011A11EE100AA9EB60002D
:1013400021EE261A02EE100A21EE021A21EE021AEE
:1013500031EE271A21EE021A25EE012A20EE010AAB
:1013600088ED002A24EE012A85ED000A9DED010A90
:1013700086ED002A23EE012A87ED002A0CF090FF6B
:101380009FED1B1A20EE010A84ED020AB0EE4C0A12
:101390000CF082FD9FED178AF0EE4A0A20EE080A53
:1013A00084ED010AB0EE4B0A0CF07AFF20EE080A39
:1013B00084ED000AD8F8000004F1180C31683A688E
:1013C0002B688CE80F0002B0BDEC108B01B0BDE8BB
:1013D000F04304B07047B0EE410A0DF081F9F7EE2A
:1013E000087AFEEE006ACFE6CDCC4C3D0000FA4410
:1013F000E12E65C2E12E65427047000080B57E2077
:10140000B6210AF0A9F9322000F0A8FC7D200421C1
:101410000AF0A2F97C2000210AF09EF91420B621DE
:101420000AF0DCF9322000F099FC112000210AF0CA
:10143000D5F9412000210AF08FF940208C210AF0D3
:101440008BF90F2002210AF0C9F910200021BDE814
:1014500080400AF0C3B90000F0B581B0FFF7CEFFBD
:1014600069460020002506F09FFB9DF800600DF105
:101470000101002006F0E4FB9DF8017009F082FBF9
:1014800004463C2001210AF0A9F98DF803500DF122
:10149000030500BF3C20294606F0D2FB9DF803005F
:1014A000C0F3400000288DF80300F3D0B7F10F001F
:1014B00018BF0120B6F11E0118BF012141EA8000CA
:1014C00004430DF102013C2006F0BAFB9DF8020036
:1014D00000F0040044EA400001B0F0BDC8200AF06A
:1014E00053FAFBE7FEE700004FF47A700AF04CFA7B
:1014F000FAE7000041F2C830C2F2000000F07ABA08
:1015000041F22870C2F2000000F074BA41F2686043
:10151000C2F2000000F06EBA41F2E840C2F20000F0
:1015200000F068BA41F2A850C2F2000000F062BABE
:1015300070470000B0B540F60044C4F202042046F3
:101540004FF48061002200F0F1FC0220802106F0BF
:10155000ABFC0220FF2106F0A7FC054620464FF415
:101560008061012200F0E2FCB5F1480018BF0120C3
:10157000B0BD000070B540F60044C4F2020420463D
:101580004FF48061002200F0D1FC0220832106F09C
:101590008BFC41F2CE264FF0FF35C2F2000600BFB1
:1015A0000220FF2106F080FC71190135052D4870DD
:1015B000F6D120464FF48061012200F0B7FC2046AE
:1015C0004FF48061002200F0B1FC02200A2106F0F5
:1015D0006BFC0220012106F067FC20464FF480617D
:1015E0000122BDE8704000F0A1BC00000000000036
:1015F0002DE9F04381B02DED028B06F043FF42F25E
:10160000F82842F20039C2F20008C2F2000942F2A0
:10161000EC2098ED000A99ED001AC2F20000B0F932
:101620000000B8EEC00AB8EEC11A80EE018A0DF0D3
:1016300058FF044642F2F020C2F20000B0F9000068
:101640000D4600EE100AB8EEC00A28EE000A10EEB1
:10165000100A0EF069F99FED4E0B06460F4653EC4B
:10166000102B204629460DF067FF32463B460DF011
:1016700007FD0DF0D3FC40F2BC21C2F2000108606E
:1016800006F0A8FE42F2F420C2F2000090ED002A1B
:1016900042F2FC20C2F2000090ED003AB8EEC22AFD
:1016A000B8EEC33A98ED000A99ED001A82EE032ACB
:1016B00042F20830B8EEC00AB8EEC11AC2F2000019
:1016C00080EE010A90ED001A42F21430C2F20000DE
:1016D000B0F90000B8EEC11A03EE100A42F21C3055
:1016E000C2F20000B0F90000B8EEC33A04EE100AEE
:1016F00042F21030C2F20000B8EEC44AB0F9000065
:1017000022EE044A34EE033A04EE100A42F2183094
:10171000C2F20000B0F90000B8EEC44A05EE100AAB
:10172000B8EEC55A42F2043022EE055AC2F2000069
:1017300035EE044A90ED005A42F20C30C2F200003D
:1017400022EE033AB0F9000033EE011A20EE023A1D
:1017500022EE011A02EE100A23EE043AB8EEC54A50
:10176000B8EEC22A31EE041A20EE020A30EE010A67
:1017700040F29C0033EE000AC2F2000080ED000A45
:10178000BDEC028B01B0BDE8F08300BF00BF00BF1D
:10179000000000000000E03F70B542F2F420C2F209
:1017A00000000021016042F2F82040F60044C2F23D
:1017B0000000C4F20204016020464FF400710022D0
:1017C00000F0B4FB02208D2106F06EFB0220FF2109
:1017D00006F06AFB054620464FF40071012200F036
:1017E000A5FB42F22036C2F20006357006F0E4FB9B
:1017F00000208021102206F09DFE42F20030C2F24D
:1018000000004FF4F001016020464FF40071002207
:1018100000F08CFB0220072106F046FB0220B321DA
:1018200006F042FB20464FF40071012200F07EFBDF
:1018300020464FF40071002200F078FB02200821BE
:1018400006F032FB0220072106F02EFB20464FF463
:101850000071012200F06AFB3078103818BF0120B7
:1018600070BD0000EFF3108072B600BFFEE700000D
:101870004FF4FA600AF088F8FAE70000F0B50E2895
:101880005AD142F2AC37C2F200073978FE2953D15F
:1018900079780A2918BFF0BDB7F906C09FED271A5D
:1018A00000EE10CAB7F908207B88B8EEC00A48F6E7
:1018B000AD3E80EE010A5343C6F6DB0E53FB0EF33A
:1018C000BD881C1346F2903104EBD37305FB02F480
:1018D000C2F2000154FB0EF52C13B1F9020004EB27
:1018E000D5751CB2B1F90660201AB1F90A4001EEB3
:1018F000100A28B2801B02EE100A101B03EE100A19
:10190000B8EEC11AB8EEC22AB8EEC33A81EE001A98
:1019100082EE002A83EE000A7889A1F80CC00A81C1
:101920000B808D8088834B80CD804A8181ED041AA5
:1019300081ED052A81ED060AF0BD00BF002474493F
:1019400001200AF021F8FBE770B5866D044600F02F
:10195000F3FA94F83510022925D105462068216C48
:10196000026822F016020260426922F0800242619F
:1019700009B9A16C19B1016821F008010160016881
:1019800021F00101016000BF20680068C0070ED08F
:1019900000F0D2FA401B0628F6D320206065032011
:1019A00084F835000CE080206065012008E0E06DDF
:1019B0003F2101FA00F0B060012084F835000020DA
:1019C000002184F8341070BD90F83510022909D137
:1019D000052180F835100068016821F001010160DF
:1019E00000207047802141650120704790F8350044
:1019F00070470000F0B581B004460020009040F22E
:101A00001C00C2F200000268D4E9166048F2B51367
:101A100037680821C1F64E3381403942A2FB0325C5
:101A20000CD0226813685B0708D5136823F0040301
:101A30001360B160616D41F0010161650121814078
:101A4000394208D022685269120604D5B160616D2E
:101A500041F00201616504218140394208D02268C9
:101A60001268920704D5B160616D41F004016165AF
:101A700010218140394215D020680268120711D523
:101A8000B16002680168520306D4C90506D4016832
:101A900021F00801016001E008033ED4216C09B186
:101AA00020468847E16D202000FA01F23A4240D0FA
:101AB00020680368DB063CD5B26094F835300268D4
:101AC000052B1AD122F016020260426922F0800230
:101AD0004261226C0AB9A26C1AB1026822F00802B3
:101AE00002603F208840B060012084F83500216DFD
:101AF000002084F83400D9BB3FE00168520310D4C1
:101B0000C90512D4016821F010010160012084F898
:101B10003500002084F8340007E0A16C0029BFD113
:101B2000C0E7080301D4616C00E0E16B09B1204615
:101B30008847606D08B3606DC00717D0052084F832
:101B400035002068A90A026822F00102026000BF85
:101B5000009A01328A42009202D80268D207F7D175
:101B6000012084F83500002084F83400E16C21B1B4
:101B7000204601B0BDE8F040084701B0F0BD0000CC
:101B80002DE9F041044600F0D7F9C4B10546022022
:101B900084F835000020216884F83400086820F0BB
:101BA0000100086020680168C9070BD000F0C4F983
:101BB000401B0528F6D90321202203207AE00120CA
:101BC000BDE8F081016848F23F02CFF21002D4E98B
:101BD000013501EA020ED4E9032143EA0E032B4347
:101BE000D4E9056C1A43D4E907781143314341EA3B
:101BF0000702616A42EA0802042942EA0C0303D19F
:101C0000D4E90B273A43134303604269042922F0C5
:101C1000070241EA02012DD1D4E90A5341EA050144
:101C200043B3BCF5005F08D0BCF1000F12D1022D08
:101C300016D0012D07D09DB119E0032D17D8DFE88C
:101C400005F00B0F0B02A3F1C072B2FA82F2520937
:101C50004AB90FE0032D02D2012222B90AE006D1CF
:101C6000C3F3006232B101214022012022E00022B0
:101C7000002AF8D100F0F8024AF6AB23103ACAF66F
:101C8000AA23A2FB033740F2645341613909C0F62D
:101C90000103595C40F2FF3398435F2A4FF03F0243
:101CA00088BF0430C4E9160102FA01F18160002204
:101CB00001210020626584F83510BDE8F081000044
:101CC00070B590F834C0BCF1010F45D04FF0010C55
:101CD00080F834C0D0F858E090F835C0BCF1010F5E
:101CE00037D14FF0020C80F835C04FF0000CC0F82F
:101CF00054C0D0F800C08468056CC06DDCF800608A
:101D0000402C26F48026CCF80060CCF804300B463A
:101D100004BF13460A463F2101FA00F0CCF8083010
:101D2000CCF80C20CEF80800DCF8000040F01600DB
:101D3000CCF800002DB1DCF8000040F00800CCF831
:101D40000000DCF8000040F00100CCF800000020AA
:101D500070BD002180F83410022070BDB0B504467B
:101D600000F0EAF8054640F22800C2F200000078D0
:101D7000611C18BF044400BF00F0DEF8401BA04205
:101D8000FAD3B0BD2DE9F04F82B000F13E4241F6EA
:101D9000004502F1FF77C4F2020508224FEAB72698
:101DA000A84208BF0722072E38BF4FEAB7224FF0DC
:101DB000010E002400274FF00009009209E000BF47
:101DC00009F101090237B9F1100F04F1040400F020
:101DD000A4800A680EFA09FC12EA0C08F0D0D1F8C7
:101DE00004B00BF0030AAAF10102012A14D8826898
:101DF0000323CE6803FA07FE22EA0E02BE403243F6
:101E000082604268CBF3001622EA0C0206FA09F659
:101E10004FF0010E32434260BAF1030F1DD0C26889
:101E200003238D6803FA07F6B24305FA07F6324337
:101E3000BAF1020FC26010D16FF0030202EA590238
:101E40000244D2F820C004F01C050F230E69AB40F9
:101E50002CEA0303AE4033431362026803234E6847
:101E6000BB409A4306F00303BB401A4316F4403FBD
:101E70000260A5D0002243F644030192C4F202039B
:101E80001A6843F6004C42F480421A601A68C4F2A1
:101E9000010C02F480420192019A29F003024FF6EC
:101EA000084A6244CFF6FF7A52F80A3004F00C0672
:101EB0000F25B540AB43009D05FA06F6334342F8C3
:101EC0000A30DCF800204B6842EA0806DD0358BF00
:101ED00022EA0806CCF80060DCF804209D0342EA00
:101EE000080658BF22EA0806CCF80460DCF808208F
:101EF000DD0242EA080643F60C4558BF22EA08060E
:101F0000CCF80860C4F201052A689B0242EA080680
:101F100058BF22EA08062E6052E702B0BDE8F08FF3
:101F20000069084018BF012070470000002A08BF60
:101F3000090481617047000046F2B030C2F200002F
:101F400000687047002804BF012070472DE9F04F5A
:101F50008BB00446056890F8F90228B9002084F88F
:101F6000F802204600F04EF8032084F8F902E86BEE
:101F7000C0055CBF00202061206808F047FD206894
:101F800004F11C0A0A90D4E90C5004F1040E9AE8FA
:101F9000C0079EE80E58CDE9085003A880E8C003AA
:101FA0000A988DE80058CDF81CA008F0B3FC206812
:101FB000012108F0B3FDD4E9008004F108070A907C
:101FC000D4E90C01D4E9056504F1240B8CCFD4E9E4
:101FD00007CE9BE8000ECDE9080102A80A9980E827
:101FE00020504046CDE90076CDE9059ACDF81CB0E9
:101FF00008F014FD012084F8F90200200BB0BDE8C0
:10200000F08F0000B0B586B000680024B0F1A04F9A
:102010000594CDE903440294019401D006B0B0BD0B
:1020200043F630050094C4F20205286801A940F087
:1020300001002860286800F00100009000984FF42B
:10204000C05001900220CDE90204032004900A2030
:1020500005900020C4F20200FFF794FE686840F08B
:10206000800068600094686940F480406861686935
:1020700000F480400090009806B0B0BD70470000AA
:1020800070470000F0B581B004460068002546693D
:10209000426894F83E1002F48077F20505D5002FCF
:1020A0001EBF6FF4807242610125B20505D5002F75
:1020B0001EBF02356FF400724261720516D5AFB1D2
:1020C000628D94F83D30D4F830C0202908BF002A32
:1020D00021D06FF48062402905F10405426101D0EE
:1020E000102903D1016841F400710160300505D564
:1020F00027B1206808356FF4006141614DB1206C53
:1021000040EA05012046216401B0BDE8F04003F03B
:1021100091BA01B0F0BD03F0F702212A04D0282BB8
:1021200008BFBCF1210FD4D194F83D10E26AB2F19E
:10213000080318BF0123203A18BF0122134208BF29
:1021400028291CD0212934D10021CFF6FF71E1626A
:1021500021212163202184F83D10002184F83E10C4
:10216000416821F4E06141606FF480614161016880
:1021700021F480610160204600F022FCB6E70021D6
:10218000CFF6FF71E162416821F4E06141606FF4D4
:1021900080614161016821F480610160002020219B
:1021A000206384F83D1084F83E00204600F0B2FB26
:1021B0009CE76FF48061416198E70000F0B581B061
:1021C000076804467A68C06A94F83E3094F83DE0A7
:1021D000402B01D0102B0CD1BE697D69E90734D1A9
:1021E000B0F12A4F00F05682B0F52A0F00F052826B
:1021F0002DE0206C02F4007300280CBFBE6900269D
:102200007D69A8073CD5DBB3206C002818BFBE69E8
:1022100094F83D0000F02800282840F08E8078686F
:10222000002320F480607860012020EA96013006C7
:102230004FF0180058BF0C20225A204684F83C303A
:1022400001B0BDE8F040FFF71BBF900542D428075E
:1022500002F4007C44D5BCF1000F41D0606B616C8E
:10226000C9B2396118B1C06B002840F0D480A06BAE
:10227000002800F00F82C06B002840F0CC8009E2FB
:10228000E80665D5002B63D094F83D50786820F4BB
:10229000E06078600020009078690090386840F035
:1022A000010038600098386820F4806038607868F1
:1022B000000540F1478105F0F7002646222840F04E
:1022C000208156F8380F0168496826F80E1C36F848
:1022D0000E1C1EE1E06AB0F52A0F6ED1012071E0FC
:1022E000A80740F19E80BCF1000F00F09A8094F89E
:1022F0003E30E06A226B94F83D10222940F0AB801A
:10230000216D002908BF402B00F0A580216D002918
:1023100040F097812169B1F5404F40F09281002053
:10232000009078690090B86900900098386840F48F
:1023300080703860206D013017E2002000907969CC
:102340000091B9690091009984F83C0001B0F0BD9A
:102350000EF0F70002F48062212805F0040040F03E
:102360008380290640F13781002A00F0348100285B
:1023700040F0318194F83D00618D002900F08A81A0
:10238000616A11F8012B3A616162618D01396185E1
:10239000618D002908BF292840F07C8178682821B8
:1023A00020F48060786021202063204684F83D106E
:1023B00001B0BDE8F04000F003BBE06AB0F12A4F85
:1023C00001D10820E06294F83E0040280AD1206D37
:1023D000616C002801F0FE0018BF40F00100386178
:1023E00001B0F0BD2069B0F5804F67D194F83D0091
:1023F000616C212801F0FE0118BF01313961606B69
:1024000008B1C06B38B9A06B002800F04381C06BE5
:10241000002800F03F81786840F40060786001B0E7
:10242000F0BD7868710700F4006055D4002840F0D2
:102430003181680605F0040040F11C8112F48061CE
:1024400000F01881002840F01581204601B0BDE859
:10245000F04003F00FBA0020009078690090B8694E
:102460000090009801B0F0BD690640F1C080002ADC
:1024700000F0BD80002840F0BA8094F83D00618DE6
:10248000002900F007813969626A1170616A0131BF
:102490006162618D01396185618D002908BF2A283B
:1024A00040F0F8802068416821F48061416022207A
:1024B00028212063204684F83D10BDE0206D0028CF
:1024C00000F0A780206D012840F0E480606C0621B8
:1024D00001EAD010F13082E7002840F0DB802806C6
:1024E00005F0040040F1D18012F4806100F0CD804D
:1024F000002840F0CA80204601B0BDE8F04003F05B
:1025000077BA56F8340F0168496826F80A1C36F87D
:102510000A1C19B1216C41F004012164796821F48D
:1025200000617960FFF762FA01280BD0306845F24C
:102530005151C0F600010165FFF746FA10B130684D
:10254000016D8847608DF8B120684169490708D559
:102550000069616A0870606A01306062608D0138EC
:10256000608520684169490608D50069616A08707C
:10257000606A01306062608D01386085608D18B1DD
:10258000206C40F004002064206C28B1204601B08B
:10259000BDE8F04003F04EB82A2D07D1002020639B
:1025A000282084F83D00204600F008FA94F83D0009
:1025B000282834D10020CFF6FF70E06200212020CF
:1025C000216384F83D00204684F83E1001B0BDE848
:1025D000F04000F09FB9002818BF002B5AD0608D42
:1025E000002857D0606A10F8011B39610BE0002801
:1025F00018BF002B4ED0608D00284BD03869616A1F
:102600000870606A01306062608D0138608501B0D9
:10261000F0BD606C062101EAD010F030DFE6206BDF
:10262000222818BF222D35D100212020216384F8D3
:102630003D00204684F83E1001B0BDE8F04000F0B7
:10264000BDB9618D51B1618D012925D1202818BFF7
:1026500008283DD1386820F4806038600020009060
:1026600078690090B86900900098386840F400706C
:10267000386079E0002818BFBCF1000F0AD020466E
:1026800001B0BDE8F04003F083B8002818BFBCF1EA
:10269000000F10D101B0F0BD618D022914D11028B6
:1026A00040D8012114228140C0F20102114239D0E8
:1026B0004FF480623CE0BEF1210F18D1204601B0FA
:1026C000BDE8F04003F054B9396841F4806131E06D
:1026D00010F5803F13D1386820F480603860786846
:1026E0000005BBD5386820F48060386035E0402BA9
:1026F000D0D1204601B0BDE8F04003F0D1B9122A94
:1027000001D10128A6D11028ECD8012101FA00F04E
:102710001421C0F201010842E4D0386840F480601E
:1027200038601AE039684FF4006221F48061396042
:10273000396811433960796809050ED5421E1F2A90
:1027400016D80121914048F28102C8F200021142DC
:102750000ED0786840F4805078600020009078694E
:102760000090B869009000980020206501B0F0BD8D
:1027700010F5803FEDD0F0E770470000F0B581B074
:10278000B0B3044690F83D0028B9002084F83C001E
:10279000204600F0C9F8242084F83D002068016834
:1027A00021F001010160016841F40041016001680C
:1027B00021F40041016000F0B5FA48F28041C0F216
:1027C0001E0140F60012656888424FF00001C0F219
:1027D0003D0248F2A16C4FF0000338BF0121904246
:1027E000C0F2010C38BF0123654538BF0B4613B159
:1027F000012001B0F0BD4DF68361C4F21B31A0FB96
:10280000011221684FEA924E4B684FF4967623F0FE
:102810003F0343EA92434B6044F6D3530F6A0EFBE7
:1028200006F6C1F26203A6FB033627F03F03B709A1
:10283000654538BF970C7A1C1A430A62CA6948F288
:10284000A0674CF6FF73C0F20107BD4222EA030CF9
:102850000AD801386A00B0FBF2F001306FF31F3084
:10286000042898BF04202BE0A368A0F1010E9BB1BF
:1028700019206843BEFBF0F00422013062F31F30E0
:10288000000512D09BB119206843BEFBF0F0042272
:10289000013062F31F3011E005EB4500BEFBF0F0A4
:1028A00001306FF31F300005ECD1012008E005EB8B
:1028B0004500BEFBF0F001306FF31F3040F40040E4
:1028C00040EA0C00C8610868D4E9072320F0C00082
:1028D000104318430860886848F2FF3204F10C077F
:1028E00090438CCF18431043A6698860C86820F0D5
:1028F000FF0038433043C860086840F001000860BA
:1029000000202021206484F83D10206384F83E00DC
:1029100001B0F0BD70470000704700007047000034
:102920007047000070470000B0B586B045F2004126
:102930000068C4F20001002488420594CDE90344F4
:102940000294019401D006B0B0BD43F63005009466
:10295000C4F20205286840F002002860286800F0F0
:10296000020000900098C02001901220CDE90204DE
:10297000032004900420059001F5D83001A9FFF749
:1029800001FA00942869052140F4001028612869A3
:10299000002200F40010009000981F2000F0B6F80C
:1029A0001F2000F0A3F820200521002200F0AEF83F
:1029B000202000F09BF806B0B0BD0000704700007A
:1029C0007047000040F2280046F2B031C2F2000029
:1029D000C2F2000100780A681044086070470000E5
:1029E00080B543F60040C4F20200016841F4007172
:1029F0000160016841F480610160016841F4807107
:102A00000160032000F0AEF80F2000F005F800F0A0
:102A10004BF8002080BD000010B586B0014637207D
:102A20000022002400F072F8372000F05FF843F62F
:102A300040000194C4F20200016841F020010160ED
:102A40000068694600F020000190019801A800F09C
:102A500049F900F067F94DF683614000C4F21B317B
:102A6000A0FB01014FF0FF3000EB914141F63060D7
:102A700041F20042C2F20000C4F2000240F2E73329
:102A8000C0E90021C0E90243046101F029F810B156
:102A9000012006B010BD41F63060C2F2000001F026
:102AA000B9F806B010BD000082B0002043F6400126
:102AB0000190C4F202014A6842F480424A604A68C6
:102AC00002F480420192019A00900868002240F0CE
:102AD0008050086008680F2100F080500090009836
:102AE0006FF0010002B000F011B80000002848BFEC
:102AF000704700F01F01012202FA01F14EF20012AC
:102B00004009CEF2000242F82010704710B54EF690
:102B10000C5CCEF2000CDCF80030C3F3022E8EF019
:102B20000704042C28BF0424BEF103034FF0FF3E2A
:102B30000EFA04F438BF0023A14399400EFA03F3C0
:102B40009A43114300F1604200F00F03090102F5BE
:102B50006442043B6344002848BF03F10C02117037
:102B600010BD00004EF60C51CEF200010A684FF67F
:102B7000FF031A4060F30A2242F0806040F0FD70CB
:102B8000086070472DE9F041002800F08B8043F683
:102B90000808C4F202080446D8F8F8030D4600F00D
:102BA0000700884207D288F8F853D8F8F80300F0F5
:102BB0000700A84276D12068810717D5410705D5BF
:102BC000D8F8001041F4E051C8F80010010705D50D
:102BD000D8F8001041F46041C8F80010D8F800108F
:102BE000A26821F0F0011143C8F80010C0073FD1DE
:102BF000D8F8F80300F00700A84207D988F8F8537E
:102C0000D8F8F80300F00700A8424BD1206841072C
:102C100007D5D8F80010E26821F4E0511143C8F854
:102C20000010000708D5D8F80000216920F46040A2
:102C300040EAC100C8F8000000F09CF8D8F8001085
:102C40004FF64452C1F30311C0F60002515C40F24A
:102C50001C0220FA01F140F22C00C2F200000068D0
:102C6000C2F200021160FFF7D7FE0020BDE8F0813C
:102C70006068811E022907D258F8081C89015CBFD0
:102C80000120BDE8F08110E0012807D158F8081CA8
:102C900089035CBF0120BDE8F08106E058F8081CFC
:102CA000890702D40120BDE8F081D8F8001021F096
:102CB00003010843C8F80000FFF73EF9064641F259
:102CC000883700BFD8F80000616800F00C00B0EB56
:102CD000810F8DD0FFF730F9801BB842F2D9032065
:102CE000BDE8F0810F22026043F60802C4F202023E
:102CF000136803F003034360136803F0F003836079
:102D0000136803F4E053C360D2F800C04FF4E053FB
:102D100003EADC030361D2F8F80300F0070008605F
:102D20007047000040F21C0043F60801C2F20000A8
:102D3000C4F20201006809684FF65452C1F38221BF
:102D4000C0F60002515CC8407047000040F21C0011
:102D500043F60801C2F20000C4F2020100680968EB
:102D60004FF65452C1F34231C0F60002515CC840E4
:102D70007047000010B543F60404C4F20204606812
:102D800000F00C0142F200400829C0F2F40007D024
:102D9000042918BF10BD41F20020C0F27A0010BD16
:102DA000216801F03F02216823684902C3F38811BA
:102DB00005D4A1FB00010023FDF76CFA06E041F207
:102DC0000020C0F27A004843B0FBF2F021680222F2
:102DD000C1F3014102EB4101B0FBF1F010BD000075
:102DE0002DE9F04182B0002800F0A180044600786F
:102DF00043F60006C007C4F2020643D0B06800F0F4
:102E00000C00042805D1306880033BD56068C8BB3E
:102E10008DE0B06800F00C00082802D17068400214
:102E2000F1D46568B5F5A02F0AD0B5F5803F0BD079
:102E3000306820F480303060306820F4802006E074
:102E4000306840F480203060306840F4803030607A
:102E5000FFF772F8002D054611D000BF30688003DF
:102E600010D4FFF769F8401B6428F7D920E100BFB0
:102E7000FFF762F8401B64284FF0030054D8306815
:102E80008003F5D4207880071AD5B06810F00C0FB5
:102E900009D0B06800F00C00082840F08880706805
:102EA000400200F184803068800702D5E068012884
:102EB0003DD13068216920F0F80040EAC10030605F
:102EC0002078000737D4207840074AD4A56955B345
:102ED000B06800F00C00082840F09C80012D26D03E
:102EE0007068E16900F480028A4220D1216A00F012
:102EF0003F028A421BD147F6C071626A0140B1EBC2
:102F0000821F14D1A16A4FF6FF73C903994300F4DD
:102F10004032A1F580318A4209D1E16A00F0706047
:102F2000B0EB016F03D1002002B0BDE8F0810120B9
:102F300002B0BDE8F0816069002840F20000C4F2F0
:102F4000472056D00121C0F8801EFEF7F5FF054648
:102F5000706F8007B7D4FEF7EFFF401B0228F7D948
:102F6000A6E0306C10F080580AD100200190306C3F
:102F700040F080503064306C00F080500190019837
:102F800047F20007C4F200073868C00524D4386847
:102F900040F480703860FEF7CFFF05463868C00502
:102FA0001AD4FEF7C9FF401B0228F7D980E0E06879
:102FB000002851D00020C4F2472001210160FEF713
:102FC000BBFF0546306880073FF573AFFEF7B4FFDF
:102FD000401B0228F6D96BE0A568052D50D0012DC5
:102FE00052D0306F20F001003067306F20F00400C5
:102FF0004DE00021C0F8801EFEF79EFF054600BF91
:10300000706F80077FF55FAFFEF796FF401B0228C9
:10301000F6D94DE00027C4F2472700203866FEF7B6
:103020008BFF022D05460BD13068800158D5FEF785
:1030300083FF401B02284FF00300F5D974E700BF5F
:10304000306880017FF56FAFFEF776FF401B0228E6
:103050004FF00300F4D967E70020C4F247200021B5
:103060000160FEF769FF0546306880077FF528AFED
:10307000FEF762FF401B02284FF00300F4D953E72C
:10308000306F40F004003067306F40F0010030676F
:10309000FEF752FF002D054641F2883714D000BFDD
:1030A000306F800713D4FEF747FF401BB842F7D9B3
:1030B000032002B0BDE8F081FEF73EFF401BB8429E
:1030C0004FF003003FF630AF306F8007F4D4B8F113
:1030D000000F7FF4FBAE306C20F080503064F5E6DA
:1030E00004F11C052FCD084340EA8210D9034FF6A6
:1030F000FF729143A1F5803140EA0560084370609A
:1031000001203866FEF718FF044600BF30688001D2
:103110003FF509AFFEF710FF001B02284FF0030038
:10312000F4D901E77047000090F8510070470000A3
:10313000B0B582B0044600684168826812F040036E
:1031400005D112F0010518BF11F040050ED1950709
:1031500004D511F0800501D0616C08E012F4B07F55
:1031600018BF11F0200507D102B0B0BD216C204678
:1031700002B0BDE8B0400847BBB194F85130032B12
:1031800008D100210191C1680191806801900198E6
:1031900002B0B0BD636D43F0040363650023019387
:1031A000C368019383680193019B12F0200302F42A
:1031B00080720CD0636D43F00103636500230193BB
:1031C00083680193036823F040030360019B42B1CD
:1031D000626D42F0080262650022019282680192EB
:1031E000019A626D002ABFD04268890722F0E0028E
:1031F00042604FF0010284F851201FD0416847F629
:103200002D6521F003014160E06CC0F6000538B186
:103210000565FEF7D9FB18B1606D40F040006065B0
:10322000A06C0028A0D00565FEF7CEFB00289BD03F
:10323000606D40F04000606502B0B0BD204602B055
:10324000BDE8B040FFF76EBF70B538B10446406AC4
:1032500030B10020206104F1140007E0012070BDAE
:103260006068B0F5827F03D004F11C00002101608A
:103270000026A66294F8510020B9204684F85060D8
:1032800000F03CF8022084F8510094E80F0001F4AB
:103290008271056802F4044225F04005056011447E
:1032A00003F400622369114403F0020263691144CC
:1032B00003F00102A369E569114403F400721144AB
:1032C00005F03802256A114405F08002A56A114311
:1032D00005F4005211430160626A042101EA1341BE
:1032E00002F0100211444160C16921F40061C16122
:1032F0000120666584F85100304670BD2DE9F04329
:1033000087B00446006843F60001C4F200010026BD
:103310008842CDE90566CDE9036602966DD043F299
:103320000001C4F20101884240F0B980002643F652
:1033300030000196C4F20200416946F2580841F497
:10334000805141614169C4F2020801F48051019148
:1033500001990196016841F001010160006802A92C
:1033600000F0010001900198E02002900220CDE9D8
:10337000030603200590052006900020C4F20200F9
:10338000FEF700FD41F2083508F57A70C2F200053B
:103390004FF0C0674FF48069C5E900072846C5E9CA
:1033A0000266C5E90496C5E90666C5E90866FEF742
:1033B000E7FB002818BFFEF755FAE564AC6341F25D
:1033C000683508F58060C2F200054021C5E90007B4
:1033D00005F1080080E842022846C5E90566C5E90E
:1033E00007666E62FEF7CCFB002818BFFEF73AFABC
:1033F000A56405F13800232548E043F63000019626
:10340000C4F20200016941F480410161016901F4E3
:103410008041019101990196016841F0020101602A
:10342000006802A900F00200019001984FF460408A
:1034300002900220CDE903060320059005200690A6
:103440000020C4F2020000F58060FEF79BFC41F210
:10345000C83546F25800C2F20005C4F202004FF42B
:103460008061C5E900062846C5E90266C5E904167B
:10347000C5E90666C5E90866FEF782FB002818BFA5
:10348000FEF7F0F9E56405F13800242504602846CC
:1034900005210022FFF73AFB2846FFF727FB07B07C
:1034A000BDE8F0832DE9F04381B0044640681D4635
:1034B0001746B0F5827F0E4602D1A06800285AD088
:1034C00094F85000012803D1022001B0BDE8F08338
:1034D0004FF0010984F85090FEF72EFD94F851103A
:1034E000012946D18046002E4FF0010018BF002F61
:1034F00077D0042084F8510000206065A663A78778
:10350000E7872063A086E086A1682064B1F5004FBC
:10351000606408D12068016821F040010160016801
:1035200021F48041016020680168490603D40168E4
:1035300041F040010160E168E08F49B3002843D0C9
:103540006E1C09E0C068A16B21F8020BA163E08F3B
:103550000138E087E08FB8B320688168C907F1D1EE
:10356000FEF7EAFC002EF5D0A0EB0800A842F1D34C
:1035700028E0022035E0042084F85100204631463E
:1035800032463B46009500F017F901B0BDE8F083E4
:10359000D0B16E1C0AE0007BA16B0870A06B0130FB
:1035A000A063E08F0138E087E08F68B12068816810
:1035B000C907F0D1FEF7C0FC002EF5D0A0EB080043
:1035C000A842F1D303200CE020462946424604F0ED
:1035D00033FC00281CBF20206065606D002818BFE8
:1035E0000120002184F8519084F8501001B0BDE80A
:1035F000F08300002DE9F04383B0044690F85000BA
:10360000012803D1022003B0BDE8F0834FF0010987
:103610001D4616460F4684F85090FEF78DFC94F830
:10362000511001295CD18046002F4FF0010018BFD6
:10363000002E00F0B880032084F85100002060655F
:103640002763A686E686A063A087E087A168C4E911
:103650001000B1F5004F08D12068016821F0400149
:103660000160016841F480410160206801684906F9
:1036700003D4016841F0400101606168731EE26893
:10368000B1FA81F1B3FA83F349095B09B2F5006F2E
:1036900041EA030126D131B137F8021BC16027632B
:1036A000E08E0138E086E08E002842D06E1C09E0F2
:1036B000216B31F8022BC2602163E08E0138E08675
:1036C000E08EB0B3206881688907F1D4FEF734FC3E
:1036D000002EF5D0A0EB0800A842F1D3032062E051
:1036E000022060E039B139780173206B013020632A
:1036F000E08E0138E086E08ED8B16E1C0BE000BF92
:10370000216B09780173206B01302063E08E013852
:10371000E086E08E68B1206881688907F0D4FEF702
:103720000BFC002EF5D0A0EB0800A842F1D303203B
:1037300039E040F21C00C2F20000006849F68171D5
:10374000C1F25E61A0FB0101480D4FF47A7148435C
:1037500002906068B0F5827F0ED1204680212A4613
:10376000434604F0C1FB80B1606D40F0200060650D
:103770002020606509E000BF029830B1029801384E
:103780000290206880680006F6D4A06838B900204E
:1037900001902068C1680191806801900198606D76
:1037A000002818BF0120002184F8519084F850109F
:1037B00003B0BDE8F08300002DE9F04383B0044678
:1037C00090F85000012803D1022003B0BDE8F08337
:1037D00001201E4615460F4684F85000FEF7ACFB4C
:1037E00094F85110814601290AD06068B0F5827FB3
:1037F00070D1A06800284FF0020008BF04296AD1E8
:10380000002F4FF0010018BF002D64D0002E62D0B1
:1038100094F85100002104281CBF052084F85100B1
:103820006165A563E687A6872763E6862068A68686
:10383000216461640168490603D4016841F04001D4
:1038400001606168731EE268B1FA81F1B3FA83F333
:10385000DDF8288049095B09B2F5006F41EA0301F0
:1038600042D131B137F8021BC1602763E08E0138C5
:10387000E086012608F10105E08E10B9E08F0028EE
:103880006ED02068816889070CD5E18E51B1012E78
:1038900008D1216B002631F8022BC2602163E18E32
:1038A0000139E1868168C9070AD0E18F41B1C0685A
:1038B000A16B012621F8020BA163E08F0138E0879C
:1038C000FEF73AFB002DD7D0A0EB09004045D3D33B
:1038D000032000E00220012184F85110002184F827
:1038E000501003B0BDE8F08339B139780173206B13
:1038F00001302063E08E0138E086012608F10105E1
:10390000E08E08B9E08F58B32068816889070DD52B
:10391000E18E59B1012E09D1216B0026097801737E
:10392000206B01302063E08E0138E08620688168DA
:10393000C9070BD0E18F49B1C068A16B012608709F
:10394000A06B0130A063E08F0138E087FEF7F4FA46
:10395000002DD5D0A0EB09004045D1D30320BAE714
:1039600040F21C00C2F20000006849F68171C1F209
:103970005E61A0FB0101480D4FF47A71484302904B
:103980006068B0F5827F0ED12046802142464B46CA
:1039900004F0AAFA80B1606D40F02000606520203C
:1039A0006065012097E7029830B1029801380290D3
:1039B000206880680006F6D4A06800284FF0000058
:1039C0007FF489AF01902168CA68019289680191EA
:1039D000019980E77047000070470000B0B590F88B
:1039E0003C20012A04BF0220B0BD01F108053CCDF6
:1039F000D1E900CE23F47C5322F470521A432EF402
:103A0000F0431A432CF4E0431A4324F4C0431A430E
:103A10002A43C96922F48042036811435964002192
:103A200080F83C100846B0BD10B590F83C20012A43
:103A30004FF0020252D0012380F83C3080F83D2044
:103A40000268D2F804E0D2F808C00C682EF07003C7
:103A5000234341F2FF74C4F20004A24253600DDC20
:103A600040F2FF73C4F200039A4215DCB2F1804FBA
:103A700029D040F20043C4F2000322E040F2FF33B9
:103A8000C4F201039A4212DC41F60003C4F20003BF
:103A90009A4218D0002312E040F60003C4F200035B
:103AA0009A4210D040F60043C4F2000309E044F209
:103AB0000003C4F201039A4205D040F20043C4F26D
:103AC00001039A4204D149682CF0800319439160A4
:103AD0000121002280F83D1080F83C20104610BDE6
:103AE000002804BF0120704710B5044690F83D003F
:103AF00028B9002084F83C00204600F01FF802207E
:103B000084F83D002068211D06F006FC012084F8A1
:103B1000460084F83E0084F83F0084F8400084F8B2
:103B2000410084F8420084F8430084F8440084F89B
:103B3000450084F83D00002010BD000080B582B033
:103B4000006844F2FF31C4F20101884219DC41F2FD
:103B50000001C4F20001884230D041F60001C4F2F5
:103B60000001884253D10020019043F64000C4F286
:103B70000200016841F040010160006800F040006F
:103B800018E044F20041C4F20101884230D044F60A
:103B90000001C4F20101884239D10020019043F6AE
:103BA0004000C4F20200416841F480214160406855
:103BB00000F480200190019802B080BD00200190A7
:103BC00043F64000C4F202000168002241F01001F7
:103BD00001600068052100F0100001900198362076
:103BE000FEF794FF362002B0BDE88040FEF77EBFAE
:103BF0000020019043F64000C4F20200416841F405
:103C000000314160406800F400300190019802B03A
:103C100080BD000090F83D1001291CBF01207047B5
:103C2000022180F83D10006841F2FF72C168C4F2C1
:103C30000002904241F00101C1600DDC40F2FF71D1
:103C4000C4F20001884215DCB0F1804F29D040F267
:103C50000041C4F2000122E040F2FF31C4F2010150
:103C6000884212DC41F60001C4F20001884218D0FB
:103C7000002112E040F60001C4F20001884210D099
:103C800040F60041C4F2000109E044F20001C4F230
:103C90000101884205D040F20041C4F2010188428E
:103CA00006D1816801F00701062904BF0020704792
:103CB000016841F0010101600020704780B590F873
:103CC0003C20012A4FF0020200F0C280012380F85C
:103CD0003C3080F83D20D0F800C04FF67772DCF819
:103CE000083023EA0202CCF808200B684F2B28DCAE
:103CF0001F2B43DD202B44D0302B42D0402B40F0F3
:103D0000A980D1F804E0C968DCF82030DCF8202074
:103D100022F00102CCF82020DCF8182022F0F0027A
:103D200042EA011123F00A0242EA0E02CCF818100E
:103D3000CCF82020DCF8081041F0470121F03001D8
:103D40007DE06F2B25DDB3F5005F46D0B3F5805FD6
:103D500077D0702B7ED1D1E901E3C968DCF8082067
:103D600043EA0E0322F47F4243EA01211143CCF8D7
:103D70000810DCF8081041F0770160E00BB1102B5F
:103D800068D1DCF8081021F07001194341F00701F7
:103D900055E0502B34D0602B5CD1D1F804E0C968D9
:103DA000DCF8203023F01003CCF82030DCF8183099
:103DB000DCF8202023F4704322F0A00243EA013112
:103DC00042EA0E12CCF81810CCF82020DCF80810CB
:103DD00041F0670121F0100131E0D1E901E3C96848
:103DE000DCF8082043EA0E0322F47F4243EA012173
:103DF0001143CCF80810DCF8081041F480411EE0B3
:103E0000D1F804E0C968DCF82030DCF8202022F08A
:103E10000102CCF82020DCF8182022F0F00242EA5F
:103E2000011123F00A0242EA0E02CCF81810CCF875
:103E30002020DCF8081041F0570121F02001CCF8D7
:103E400008100022012180F83D10002180F83C106C
:103E5000104680BD0122F5E770470000F0B590F8EC
:103E60003C30012B04BF0220F0BD4FEAB202012317
:103E7000032A80F83C3000F2C480DFE802F002241C
:103E800042620368D1E900C5D1F80CE01A6A41F238
:103E9000FF7722F001021A621A4652F8186F1C6A64
:103EA000C4F20007BB4272DC40F2FF77C4F20007A5
:103EB000BB427ADCB3F1804F00F08E8040F20047C5
:103EC000C4F2000786E00368D1E900E6D1E902C147
:103ED0001A6A360222F010021A621A4652F8184F75
:103EE0004FF2FF071D6ABE4324F4734461F30F369B
:103EF00046EA040125F0A0040EF00A0744EA071779
:103F00003CE00768D1E900C5D1E902313A6A61F3C2
:103F1000071522F480723A623A4652F81C4F3E6A04
:103F200024F0F30445EA040126F420660CF00A05A7
:103F300046EA052611603E62116821F00C0111600D
:103F40005BE00368D1E900E6D1E902C11A6A3602F2
:103F500022F480521A621A4652F81C4F4FF2FF07A1
:103F60001D6ABE4324F4734461F30F3646EA04012C
:103F700025F420440EF00A0744EA073711601F6257
:103F800011684FEA0C2321F44061116035E040F2E2
:103F9000FF37C4F20107BB4212DC41F60007C4F24E
:103FA0000007BB4218D0002712E040F60007C4F219
:103FB0000007BB4210D040F60047C4F2000709E0FA
:103FC00044F20007C4F20107BB4205D040F20047AB
:103FD000C4F20107BB4219D126F00306354324F091
:103FE0000A070CF00A066EF3071537449D611F623D
:103FF0009F6927F00C079F618B68116819430023A4
:104000001160002180F83C101846F0BD46F0010513
:10401000E5E70000002804BF0120704710B5044602
:1040200090F83D0028B9002084F83C00204600F0BC
:104030001FF8022084F83D002068211D06F06CF96D
:10404000012084F8460084F83E0084F83F0084F89C
:10405000400084F8410084F8420084F8430084F86A
:10406000440084F8450084F83D00002010BD0000A5
:1040700080B586B044F200010068C4F2010100225C
:1040800088420592CDE903220292019201D006B046
:1040900080BD43F630000092C4F20200436943F44D
:1040A00080334361436903F480330093009B0092A3
:1040B000036843F010030360006800F010000090F4
:1040C0000098202001900220CDE9020203200590F3
:1040D00001F5504001A90492FDF754FE06B080BDE1
:1040E00010B5044600680169890744BFC1685FEAEA
:1040F00081713FD420680169490744BFC1685FEA04
:10410000417143D420680169090744BFC1685FEA6F
:10411000017148D420680169C90644BFC1685FEADB
:10412000C1614CD420680169C9071CBFC1685FEA3E
:10413000C17151D120680169090644BFC1685FEAB5
:10414000016150D420680169490644BFC1685FEA33
:1041500041614FD421680869800646BFC8685FEA9C
:10416000806010BD6FF0200220460A61BDE810405B
:10417000FFF732BC6FF002010161012121778069F4
:1041800080073ED02046FFF767FE40E06FF0040155
:10419000016102212177806910F4407F3AD02046E6
:1041A000FFF75AFE3CE06FF008010161042121771E
:1041B000C069800737D02046FFF74EFE39E06FF028
:1041C0001001016108212177C06910F4407F33D0CC
:1041D0002046FFF741FE35E06FF001010161204606
:1041E00000F062FBA6E76FF0800101612046FFF757
:1041F000F1FBA7E76FF040010161204600F05EFB94
:10420000A8E7204600F0D2F8204600F0B3FA0020DC
:1042100020776FE7204600F0C9F8204600F0AAFAA0
:10422000002020776EE7204600F0C0F8204600F01E
:10423000A1FA002020776DE7204600F0B7F820466D
:1042400000F098FA002020776CE7000080B586B077
:10425000006840F6FF31C4F2000188424FF00001CF
:104260000591CDE90311CDE901112BDD40F60041A7
:10427000C4F2000188424BD044F20041C4F2010173
:1042800088425ED00021C4F20101884240F08B8058
:104290000020009043F63000C4F20200016841F0B3
:1042A000100101600068012100F0100000900098EA
:1042B0004FF4D440019040F20040C4F2020000F5F7
:1042C000406067E040F20041C4F2000188424BD0F8
:1042D00040F60001C4F20001884264D10020009041
:1042E00043F63000C4F20200016841F008010160A9
:1042F0000068022100F00800009000984FF4004090
:10430000019040F20040C4F2020000F5006041E07C
:104310000020009043F63000C4F20200016841F032
:10432000010101600068022100F001000090009886
:104330000C20019040F20040C4F20200A0F5806021
:1043400028E00020009043F63000C4F2020001682B
:1043500041F0020101600068032100F002000090BA
:1043600000984FF4807010E00020009043F6300079
:10437000C4F20200016841F00201016000680221FC
:1043800000F00200009000981020019040F20040E0
:10439000C4F20200022202920022059101A9CDE995
:1043A0000322FDF7EFFC06B080BD0000704700005F
:1043B000002804BF01207047B0B5044690F83D00C6
:1043C0000D4628B9002084F83C00204600F01EF875
:1043D000022084F83D002068211D05F09DFF206823
:1043E000016821F008010160016829430160012092
:1043F00084F8460084F83E0084F83F0084F84200C8
:1044000084F8430084F83D000020B0BD70470000F0
:104410002DE9F04390F83C30012B04BF0220BDE8A9
:10442000F0834FEAB2020123032A80F83C3000F205
:10443000F580DFE802F0023E7DBD036840F20047F0
:104440001A6A43F4806522F001021A621C6A1A4655
:10445000D3F804E052F818CF8E6824F00204C4F2B6
:104460000107BD4244EA060405D1CE6824F00C04DD
:1044700026F0040634430E68BD4207D1D1E9055742
:104480002EF4407E45EA0E0545EA070E2CF0730730
:104490003743C3F804E09F614F6809695F631C629A
:1044A0009F6947F008079F619F6927F004079F6194
:1044B000B0E0036840F200481A6A43F4806522F0D5
:1044C00010021A621C6A1A46D3F804C052F818EF98
:1044D0008F6824F02004C4F20108454544EA07141B
:1044E00007D1CF686FF0400624F0C00406EA071633
:1044F0003443D1F80090454506D1D1E905562CF456
:1045000040672E4347EA860C2EF4E64747EA092720
:10451000C3F804C09F614F6809699F631C629F696B
:1045200047F400679F619F6927F480679F6170E08F
:10453000036840F200481A6A43F4806522F48072EE
:104540001A621C6A1A46D3F804C052F81CEF8F682E
:1045500024F40074C4F20108454544EA072408D154
:10456000CF6840F2FF463F0224F4406427EA060683
:104570003443D1F80090454506D1D1E905562CF4D5
:1045800040572E4347EA061C2EF0730747EA0907F7
:10459000C3F804C0DF614F680969DF631C62DF692B
:1045A00047F00807DF61DF6927F00407DF6131E0CA
:1045B000036840F200451A6A43F4806722F480528F
:1045C0001A621A46D3F820C05C6852F81CEFD1F882
:1045D00000808E68C4F20105AF4204D14D6924F415
:1045E000804444EA85142CF4005747EA06372EF439
:1045F000E64646EA08265C60DE614E6809691E648C
:104600001F62DF6947F40067DF61DF6927F48067B5
:10461000DF6109021368194300231160002180F84B
:104620003C101846BDE8F083002804BF0120704705
:1046300010B5044690F83D0028B9002084F83C00ED
:10464000204600F01FF8022084F83D002068211D5C
:1046500005F062FE012084F8460084F83E0084F8EC
:104660003F0084F8400084F8410084F8420084F858
:10467000430084F8440084F8450084F83D0000209D
:1046800010BD000080B582B0006840F6FF31C4F272
:104690000001884221DC40F20041C4F2000188425E
:1046A0003CD040F60001C4F20001884245D1002010
:1046B000019043F64000C4F202000168002241F07C
:1046C000040101600068052100F0040001900198D8
:1046D0001E20FEF71BFA1E2046E040F60041C4F201
:1046E000000188422BD00021C4F20101884224D16C
:1046F0000020019043F64000C4F20200416800220D
:1047000041F0010141604068052100F00100019085
:1047100001981B20FEF7FAF91B2025E000200190EC
:1047200043F64000C4F20200016841F0020101605A
:10473000006800F002000190019802B080BD0020E6
:10474000019043F64000C4F202000168002241F0EB
:10475000080101600068052100F00800019001983F
:104760003220FEF7D3F9322002B0BDE88040FEF7D8
:10477000BDB900007047000041B1082909D00429E3
:1047800014BF00F1410200F13F0204E000F13E02DB
:1047900001E000F140021278012A1CBF012070479D
:1047A000022241B1082909D0042914BF80F8412010
:1047B00080F83F2004E080F83E2001E080F84020AF
:1047C000006801F01F010122036A02FA01F123EAE5
:1047D00001020262026A0A4341F2FF71C4F200015F
:1047E000884202620FDC40F2FF71C4F2000188428D
:1047F00017DCB0F1804F49D040F20041C4F2000113
:10480000884243D049E040F2FF32C4F201029042B4
:1048100014DC41F60003C4F20003984236D00023B2
:1048200014E040F60001C4F2000188422ED040F6A8
:104830000041C4F20001884228D02EE044F2000377
:10484000C4F20103984221D040F20043C4F20103B4
:10485000984222D1436C884243F400434364C2DD52
:10486000904207DC41F60001C4F2000188420DD0FD
:10487000002107E044F20001C4F20101884205D0A2
:1048800040F20041C4F20101884206D1816801F082
:104890000701062904BF00207047016841F00101AB
:1048A0000160002070470000006841F20041C4F23E
:1048B0000001884218BF7047FEF784B870470000B7
:1048C00070B582B0044690F83E0020280DD1134602
:1048D0000A4600294FF0010018BF002B01D102B099
:1048E00070BD94F83C00012802D1022002B070BDD6
:1048F000012084F83C00206300262220A262A385C8
:10490000266484F83E002168A06B4AF2055C4AF2F6
:10491000815E4AF26145C0F6000CC0F6000EC0F69A
:1049200000050431C0E90FCEC0E91356FDF7C8F900
:10493000019620680168019140680190019884F80F
:104940003C6000BF206850E8030F216840F480708D
:1049500041E80302002AF5D1206850E8050F2168DC
:1049600040F0010041E80502002AF5D1206850E836
:10497000050F216840F0400041E80502002AF5D10A
:10498000206B012815D1002000902068016800915B
:1049900040680090009800BF206850E8030F21682D
:1049A00040F0100041E80302002AF5D1002002B0D7
:1049B00070BD012002B070BDB0B5006844F6FF7252
:1049C000C4F2000290420A461DDC44F20041C4F2E7
:1049D0000001884233D044F60001C4F2000188424D
:1049E00046D044F60041C4F20001884260D1D0B202
:1049F000FCF702FD41F68C7042F27441C2F20000F5
:104A0000C2F200012FE045F20001C4F20001884229
:104A100021D041F20041C4F20101884238D041F274
:104A20000001C4F20101884218BFB0BD41F6C06068
:104A300042F24831C2F20000C2F2000133E0D0B2CB
:104A4000FCF71CFF41F6047042F2AC31C2F20000E8
:104A5000C2F2000107E041F6D07042F23C51C2F2CE
:104A60000000C2F20001C822BDE8B040FFF728BF35
:104A700041F6487440F2A005C2F20004C2F20005FB
:104A800020462946322300F097FC204629460AE0BA
:104A9000104603F027FF42F2140040F23621C2F222
:104AA0000000C2F200016422BDE8B040FFF708BF79
:104AB000B0BD000010B5044642F21400C2F200007E
:104AC000844209D1002180F83C1040F23621C2F224
:104AD00000016422FFF7F4FE41F68C70C2F2000080
:104AE000844209D1002180F83C1042F27441C2F2A4
:104AF00000016422FFF7E4FE41F60470C2F20000F8
:104B0000844218BF10BD002342F2AC31C2F2000152
:104B1000642280F83C30BDE81040FFF7D1BE0000B1
:104B2000B0B582B0044600680168C368426901F00C
:104B30002F05202D03F0200506D12DB1204602B00F
:104B4000BDE8B04005F026BD5FEA017C1EBF02F063
:104B5000010E03F4907212EB0E0253D1226B012A64
:104B600005D111F0100218BF13F0100236D10A0659
:104B700022D513F080021FD094F83D1021293FD197
:104B8000A168B1F5805F03D12169002900F03F8160
:104B9000216A4A1C226209784160E18C01390A04C9
:104BA000E1842DD1C16821F08001C160C16841F06C
:104BB0004001C16002B0B0BD490621D513F04001EB
:104BC0001ED0C16821F04001C1602021204684F838
:104BD0003D1002B0BDE8B04000F0AABC0021019138
:104BE000016801914168019101994069400611D421
:104BF000A08DE18DE28D002A18BF884240F0DB8055
:104C000002B0B0BDC80718BF13F4807045D1480783
:104C100049D44FE0A06B016849688AB2002AEFD0FE
:104C2000A38D9A42ECD2E185C069B0F5807F30D087
:104C3000206850E8030F216820F4807041E80302E7
:104C4000002AF5D1206850E8050F216820F0010006
:104C500041E80502002AF5D1206850E8050F2168D7
:104C600020F0400041E80502002AF5D1202084F818
:104C70003E000020206300BF206850E8030F216839
:104C800020F0100041E80302002AF5D1A06BFCF7E8
:104C90005BFEA08DE18D401AB2E0206C40F0010077
:104CA0002064480706D5BEF1000F03D0206C40F009
:104CB00002002064880706D5BEF1000F03D0206CE7
:104CC00040F004002064BCF1000F09D545EA0E0055
:104CD000B0FA80F0400903D1206C40F00800206455
:104CE000206C00283FF48CAF11F0200018BF002D7D
:104CF00002D0204605F04EFC20684069216C00F08F
:104D0000400001F00801401848D000BF206850E87A
:104D1000030F216820F4907041E80302002AF5D1C6
:104D2000206850E8050F216820F0010041E80502E5
:104D3000002AF5D1206B01280AD100BF206850E875
:104D4000030F216820F0100041E80302002AF5D18A
:104D5000202084F83E00002020632068406940063F
:104D600023D500BF206850E8050F216820F04000DF
:104D700041E80502002AF5D1A06BB0B14AF25541D5
:104D8000C0F600010165FCF71FFE00283FF438AFB4
:104D9000A06B016D02B0BDE8B04008472046FFF7A8
:104DA00089FE0020206402B0B0BD204602B0BDE8FC
:104DB000B040FFF77FBE401A216851E8031F226808
:104DC00021F4907142E80313002BF5D1216851E8DA
:104DD000051F226821F0010142E80513002BF5D1DF
:104DE000202184F83E100021216300BF216851E892
:104DF000031F226821F0100142E80313002BF5D1B4
:104E000081B2204602B0BDE8B040FFF7D5BD216AAF
:104E100031F8022B6FF35F2242602162BDE6000091
:104E2000002804BF0120704710B5044690F83D00EB
:104E300028B9002084F83C00204600F021F8242006
:104E400084F83D002068C16821F40051C16020460B
:104E500005F000FC2068016921F49041016141697D
:104E600021F02A014161C16841F40051C160002074
:104E70002021206484F83D1084F83E1010BD00000D
:104E80002DE9F04F87B00446006844F6FF71C4F284
:104E9000000188424FF000010691CDE90411CDE9EF
:104EA00002115DDC44F20041C4F20001884200F0CE
:104EB000B98044F60001C4F20001884200F01B8171
:104EC00044F60041C4F20001884240F06E820026A0
:104ED00043F630000196C4F20200016941F400215A
:104EE0000161016901F400210191019901960168B4
:104EF00041F0010101600068022100F00100019011
:104F00000198032002900590082006900020CDE92A
:104F10000316C4F2020002A9FCF734FF46F21000A7
:104F2000C4F2020041F228453030C2F200054FF0D1
:104F300000614FF4806285E843002846C5E90362BA
:104F4000C5E90566C5E907666E62FCF719FE00282B
:104F500018BFFCF787FCA56305F1380034251BE278
:104F600045F20001C4F20001884200F02B8141F2B9
:104F70000001C4F20101884200F0A78141F2004122
:104F8000C4F20101884240F01082002643F630004E
:104F90000196C4F20200416941F02001416141697A
:104FA00001F02001019101990196016841F004018D
:104FB0000160006802A900F0040001900198C0207F
:104FC00002900220CDE903060320059008200690F8
:104FD0000020C4F2020000F50060FCF7D3FE46F2A8
:104FE0001000C4F2020041F2887500F58360C2F23D
:104FF00000054FF020614FF4806285E843002846A9
:10500000C5E90362C5E90566C5E907666E62FCF796
:10501000B7FD002818BFFCF725FCA56305F1380093
:105020004725B9E1002643F630000196C4F202009C
:10503000016946F2100841F4003101610169C4F2CE
:10504000020801F40031019101990196016841F0D3
:1050500008010160006802A900F0080001900198B1
:10506000602002900220CDE903060320059007206E
:1050700006900020C4F2020000F54060FCF782FEBA
:1050800041F2086508F17800C2F200054FF00067B0
:105090004FF48069C5E900072846C5E90266C5E9FD
:1050A0000496C5E90666C5E90866FCF769FD0028AF
:1050B00018BFFCF7D7FBA563AC6341F2686508F144
:1050C0009000C2F200054021C5E9000705F1080083
:1050D00080E842022846C5E90566C5E907666E62B2
:1050E000FCF74EFD002818BFFCF7BCFB656305F11B
:1050F0003800262550E1002643F630000196C4F220
:105100000200016946F2100841F480210161016941
:10511000C4F2020801F4802101910199019601680D
:1051200041F002010160006802A900F00200019054
:1051300001984FF4406002900220CDE9030603205D
:105140000590072006900020C4F2020000F5806060
:10515000FCF718FE41F2C86508F11800C2F200051C
:105160004FF000614FF4806785E843002846C5E9A9
:105170000367C5E90566C5E907666E62FCF700FDD1
:10518000002818BFFCF76EFBA563AC6341F22875DD
:1051900008F16000C2F200054FF06061402285E82E
:1051A000C7002846C5E90566C5E907666E62FCF7D3
:1051B000E7FC002818BFFCF755FB656305F13800D4
:1051C0002725E9E0002643F630000196C4F20200EC
:1051D0000169002741F4801101610169C4F20207ED
:1051E00001F48011019101990196016802AD41F02D
:1051F00004010160016846F2100801F00401019108
:105200000199019601684FF0020941F0080101601F
:1052100000684FF0030A00F00800019001984FF475
:10522000805002904FF0080B07F500602946C4F249
:105230000208CDE90396CDF814A0CDF818B0FCF71C
:10524000A1FD0420CDE9020904A880E8400C07F57F
:1052500040602946FCF796FD41F28845C2F2000500
:105260004FF000674FF480692846C5E90087C5E91B
:105270000266C5E90496C5E90666C5E90866FCF755
:105280007FFC002818BFFCF7EDFAA563AC6341F280
:10529000E84508F1A800C2F200054021C5E9000771
:1052A00005F1080080E842022846C5E90566C5E91F
:1052B00007666E62FCF764FC002818BFFCF7D2FAA0
:1052C000656305F13800352566E0002643F63000B9
:1052D0000196C4F20200416946F2100841F0100143
:1052E00041614169C4F2020801F010010191019984
:1052F0000196016841F001010160006802A900F017
:105300000100019001984FF4C06002900220CDE9A5
:10531000030603200590072006900020C4F2020037
:10532000FCF730FD41F2A85508F59560C2F2000582
:105330004FF000674021C5E9000705F108004FF470
:10534000806980E842022846C5E90566C5E9076626
:105350006E62FCF715FC002818BFFCF783FA656342
:10536000AC6341F2485508F58F60C2F20005C5E90B
:1053700000072846C5E90266C5E90496C5E9066640
:10538000C5E90866FCF7FCFB002818BFFCF76AFAC1
:10539000A56305F138002525046028460521002273
:1053A000FDF7B4FB2846FDF7A1FB07B0BDE8F08F81
:1053B00070470000704700002DE9F04381B00446BB
:1053C00090F83D0020280DD10D4600294FF0010036
:1053D00000F0AB801646002A00F0A78094F83C004D
:1053E000012803D1022001B0BDE8F083012084F838
:1053F0003C00002020642120984684F83D00FCF702
:105400009BFDA684E684A1688146B1F5805F01D149
:10541000206910B12F46002500E00027002084F805
:105420003C00E08C002842D008F101060AE000BFF1
:1054300097B117F8010B21684860E08C0138E084CF
:10544000E08CA0B3206800680006F1D4BEB1B8F1CA
:10545000000F0ED116E000BF35F8020B21686FF384
:105460005F2048600027E8E701680906E0D4002EC5
:10547000FAD0FCF761FDA0EB0900404502D8206896
:10548000F2E700BF206850E8030F216820F4D070D5
:1054900041E80302002AF5D1206850E8050F216891
:1054A00020F0010041E80502002AF5D10AE0206859
:1054B0000068400635D4B8F1000F1DD018F1010581
:1054C0000CD012E0202084F83D0084F83E0000203B
:1054D00084F83C00032001B0BDE8F083206800BFE1
:1054E000016849061DD4002DFAD0FCF725FDA0EB7C
:1054F00009004045F2D900BF206850E8030F216839
:1055000020F4D07041E80302002AF5D1206850E869
:10551000050F216820F0010041E80502002AF5D1BD
:10552000D0E7202084F83D00002001B0BDE8F083E2
:1055300070470000FEE7000041F6EC20C2F20000D8
:10554000FCF7A0BD41F6EC20C2F20000FCF736BE2D
:1055500010B581B000210091806B40F21C01C2F2B5
:10556000000190F83DC009684BF28952C908C1F2A8
:10557000F842A1FB0212110A23225143009100BFFD
:10558000009939B1009901390091016809688905CC
:10559000F6D403E0016C41F020010164446B4FF04C
:1055A000000E002C1CBF0021E163816B00291CBF91
:1055B0000022CA630268002C136823F4806313601E
:1055C000A0F82AE018BFC4F850E000291CBF00234F
:1055D0000B65116821F00101116090F83D10602900
:1055E0000BD1202180F83D10002180F83E1001648D
:1055F00001B0BDE81040FCF741BD0CF0280128299E
:105600000DD1116841F001011160116841F4806110
:10561000116000210163282180F83D1005E0202160
:1056200080F83D10002180F83E1001B0BDE8104028
:10563000FDF7A2B810B5044690F83D0094F83E106E
:10564000B1F1100218BF0122403918BF01210A42EE
:1056500008BF222804D121680A6822F400620A6087
:1056600000F02801282905D100202063282084F893
:105670003D000DE021684968090507D4602805D080
:10568000202084F83D00002084F83E0000202063A4
:105690002068416809051AD494F83D10602935D175
:1056A000202184F83D10002121644169490605D577
:1056B0000069616A0870606A013060622068016890
:1056C00021F0010101602046FCF7D8FC3EE0416872
:1056D00021F400614160606B90F83510012922D1FE
:1056E000A06B45F25151C0F600010165FCF76CF961
:1056F00060B320684169490605D50069616A087090
:10570000606A013060622168A06B16E04169490659
:1057100005D50069616A0870606A013060622046E0
:10572000FDF72AF812E045F25151C0F6000101657B
:10573000FCF74AF950B12168606B0A6822F0010257
:105740000A60202184F83D10016D8847206C000715
:1057500004D02068416821F4E061416094F83D0084
:10576000216C490758BF10BD28280FD10020CFF663
:10577000FF70E06200212020216384F83D00204674
:1057800084F83E10BDE81040FDF7C4B810BD00001D
:10579000C16A428D042A07D10168426A4B6823F42A
:1057A00080634B60096911E0428D032A16D10268BB
:1057B0000229536823F48063536005D0042903D081
:1057C000116821F4806111601169426A1170416AA7
:1057D00001314162418D013941857047428D022A74
:1057E00011D101390F2916D8DFE801F00810151082
:1057F00015151515151515151515150801680A68DF
:1058000022F480620BE00168426ACBE701680A6813
:1058100042F4806203E001680A6842F400720A60A0
:105820000168426A09691170416A02684B1C43624F
:10583000438D013B438512694A70416A0268013118
:105840004162418D01394185516821F440715160B7
:10585000202180F83D1090F83E200021402A80F859
:105860003E1002D10163FDF75BB812210163FDF721
:1058700053B8000081B090F83D10222936D1418DF7
:10588000042912D30168426A09691170416A013121
:105890004162418D01394185418D032926D100683E
:1058A000416821F48061416020E0C26A022A1DD073
:1058B00001291BD80021009140F21C01C2F2000115
:1058C00009684BF28952C908C1F2F842A1FB0212E1
:1058D000110A01EB810100910099013900910099B1
:1058E00031B1026812689205F6D405E001B0704744
:1058F000026C42F0200202640268F1B1116821F4E6
:1059000080611160516821F4E06151601169426A5F
:105910001170416A01314162418D01394185202177
:1059200080F83D1090F83E200021402A80F83E107B
:1059300019D1016301B0FCF7F3BF516821F4E061B4
:1059400051601169426A1170416A01314162418DB1
:1059500001394185202180F83D10002180F83E105A
:1059600001B0FCF709BF1221016301B0FCF7D4BFFD
:10597000C16A90F83D20212A18BF7047428D4AB174
:10598000416A026811F8013B13614162418D01399E
:105990004185704711F5803F18BF082917D101686C
:1059A0004A6822F4E0624A600A6842F400720A60BF
:1059B00000212022016380F83D2090F83E2080F8ED
:1059C0003E10402A08BFFCF7ADBFFCF7A7BF202957
:1059D000E5D001684A6822F4E0624A60112101635F
:1059E000002180F83E10202180F83D10FCF796BF82
:1059F00090F83D1090F83EC0C26A038D002B08BF9E
:105A0000212919D0212905D0BCF1400F08BF222936
:105A100000D07047418D61B390F83E10402908BF17
:105A200000F03EB8416A026811F8013B136141621F
:105A3000418D01394185704712F5803F18BF082A12
:105A40001DD101684A6822F4E0624A600A6842F4A3
:105A500000720A6000212022016380F83D2090F846
:105A60003E2080F83E10402A08BFFCF75BBFFCF7E1
:105A700055BF0068416821F4806141607047202A69
:105A8000DFD001684A6822F4E0624A6011210163B4
:105A9000002180F83E10202180F83D10FCF73EBF29
:105AA00090F83D10026D3AB1026D012A0FD10168E4
:105AB000826CD2B20A6115E0C26C816C012A15D1E8
:105AC0000268C9B21161016D023101657047026D52
:105AD000022A18BF7047222910D101680A6842F4CF
